:020000040000FA
:04000000EEEF00F02F
:100008000782F29E80B037D080A207D034D0818694
:1000180016D0838C14D0828C12D005C001F006C093
:1000280002F00250000AD8A40AD00150020AD8B43B
:10003800EED7010AD8B4EDD7070AD8B4ECD7818C2B
:100048001A0E026E5E0E016E6E0EE82EFED7012E9F
:10005800FCD7022EFAD700D001EC02F008D01A0E15
:10006800016EF80EE82EFED7012EFCD700D080A036
:1000780080B2ACD0F4D780B037D080B207D034D0BB
:10008800818C16D0838C14D0828C12D005C001F0DC
:1000980006C002F00250000AD8A40AD00150010A92
:1000A800D8B4EED7020AD8B4EDD7070AD8B4ECD73B
:1000B80081861A0E026E5E0E016E6E0EE82EFED757
:1000C800012EFCD7022EFAD700D0F4EC01F008D0AC
:1000D8001A0E016EF80EE82EFED7012EFCD700D0BE
:1000E80080A080A273D0F4D780A037D080A207D098
:1000F80034D0818C16D0818614D0828C12D005C061
:1001080001F006C002F00250000AD8A40AD001503B
:10011800010AD8B4EED7030AD8B4EDD7060AD8B482
:10012800ECD7838C1A0E026E5E0E016E6E0EE82EF0
:10013800FED7012EFCD7022EFAD700D0E7EC01F04B
:1001480008D01A0E016EF80EE82EFED7012EFCD745
:1001580000D080B080B23AD0F4D780A037D080B237
:1001680007D034D0818C16D0818614D0838C12D0DD
:1001780005C001F006C002F00250000AD8A40AD057
:100188000150010AD8B4EED7030AD8B4EDD7010A52
:10019800D8B4ECD7828C1A0E026E5E0E016E6E0E0B
:1001A800E82EFED7012EFCD7022EFAD700D0DAECC3
:1001B80001F008D01A0E016EF80EE82EFED7012EB7
:1001C800FCD700D080A002D080B2F4D7F292F28E91
:1001D8000792110093EF01F0D3508F0B6009D36E93
:1001E8009B8E9B50C00B1F099B6E700ED312F28E14
:1001F800F288000E816E000E806E000E836E000E77
:10020800826E030E926E010E936E000E956E000EB6
:10021800946E000E0F01386F000E396F000E3A6FA2
:10022800000E3B6F000E066E010E056E818C828CEF
:100238001A0E046E5E0E036E6E0EE82EFED7032EA7
:10024800FCD7042EFAD700D0CDEC01F0330E046EA3
:10025800BB0E036EE00EE82EFED7032EFCD7042E4D
:10026800FAD7000E066E020E056E8186818C1A0E74
:10027800046E5E0E036E6E0EE82EFED7032EFCD7BC
:10028800042EFAD700D0C0EC01F0330E046EBB0E7A
:10029800036EE00EE82EFED7032EFCD7042EFAD705
:1002A800000E066E030E056E838C81861A0E046E90
:1002B8005E0E036E6E0EE82EFED7032EFCD7042EBC
:1002C800FAD700D0B3EC01F0330E046EBB0E036E08
:1002D800E00EE82EFED7032EFCD7042EFAD7000E28
:1002E800066E040E056E828C838C1A0E046E5E0EEA
:1002F800036E6E0EE82EFED7032EFCD7042EFAD717
:1003080000D0A6EC01F0330E046EBB0E036EE00EB7
:10031800E82EFED7032EFCD7042EFAD783D71C0E5F
:10032800F66E040EF76E000EF86E0900F5CF05F0B4
:100338000900F5CF06F007900792000EF86E00014D
:10034800F0EF00F0818E819C819A8188819681945A
:10035800838E839C839A829E829C828A1200818EDD
:10036800819C819A818881968194839E839C838ACB
:10037800828E829C829A1200818E819C819A8198B9
:1003880081968184838E839C839A828E829C829AB2
:100398001200819E819C818A818881968194838EB6
:1003A800839C839A828E829C829A1200818E819C81
:1003B800819A818881968194838E839C839A829E78
:1003C800829C828A1200818E819C819A8188819682
:1003D8008194839E839C838A828E829C829A120057
:1003E800818E819C819A819881968184838E839C59
:1003F800839A828E829C829A1200819E819C818A35
:10040800818881968194838E839C839A828E829C34
:06041800829A12000100AF
:020000040020DA
:08000000FFFFFFFFFFFFFFFF00
:020000040030CA
:0E000000FF281F3CFF3D85FF0FC00FE00F40A3
:00000001FF
