:020000040000FA
:04000000F0EF39F0F4
:107376000100819E819C818A818881968194838E79
:10738600839C8398828E829C829A1200818E819C35
:10739600819A819881968184838E839C8398828E3C
:1073A600829C829A1200818E819C819A8188819624
:1073B6008194839E839C8388828E829C829A12000B
:1073C600818E819C819A818881968194838E839C0B
:1073D6008398829E829C828A1200760EF66E730EC7
:1073E600F76E000EF86E0900F5CF15F00900F5CF1F
:1073F60016F0000EF86E000101EF3AF0D3508F0B35
:107406006009D36E9B8E9B809B829B849B869B8808
:107416009B9AD388D38AD38CF29EF298000E816E03
:10742600000E806E000E836E000E826E030E926E4C
:10743600010E936E000E956E000E946E000E0F01F7
:10744600386F000E396F000E3A6F000E3B6F000E5C
:10745600166E010E156E818C828C000E066E000E65
:10746600056E06BE40EF3AF0065009E1190E055CBE
:10747600D8A040EF3AF042EF3AF046EF3AF06FEF1D
:107486003AF06FEF3AF0020E046E040E036EBA0E77
:10749600E82EFED7032EFCD7042EFAD700D081A003
:1074A60057EF3AF059EF3AF05DEF3AF048EC3CF01E
:1074B6005DEF3AF0054A062A06BE6BEF3AF0065033
:1074C60009E1190E055CD8A06BEF3AF06DEF3AF0C2
:1074D60046EF3AF06FEF3AF0BCEC39F0000E086E6A
:1074E600000E076E08BE81EF3AF0085009E1320E31
:1074F600075CD8A081EF3AF083EF3AF087EF3AF0D5
:10750600B0EF3AF0B0EF3AF0020E046E040E036EDE
:10751600BA0EE82EFED7032EFCD7042EFAD700D0DB
:1075260081A098EF3AF09AEF3AF09EEF3AF048ECE5
:107536003CF09EEF3AF0074A082A08BEACEF3AF054
:10754600085009E1320E075CD8A0ACEF3AF0AEEF76
:107556003AF087EF3AF0B0EF3AF0000E166E020EF0
:10756600156E8186818C000E0A6E000E096E0ABEAB
:10757600C6EF3AF00A5009E1190E095CD8A0C6EF29
:107586003AF0C8EF3AF0CCEF3AF0F5EF3AF0F5EF13
:107596003AF0020E046E040E036EBA0EE82EFED703
:1075A600032EFCD7042EFAD700D081A0DDEF3AF0E7
:1075B600DFEF3AF0E3EF3AF048EC3CF0E3EF3AF075
:1075C600094A0A2A0ABEF1EF3AF00A5009E1190EF1
:1075D600095CD8A0F1EF3AF0F3EF3AF0CCEF3AF0CD
:1075E600F5EF3AF0C9EC39F0000E0C6E000E0B6E9A
:1075F6000CBE07EF3BF00C5009E1320E0B5CD8A035
:1076060007EF3BF009EF3BF00DEF3BF036EF3BF0B9
:1076160036EF3BF0020E046E040E036EBA0EE82E31
:10762600FED7032EFCD7042EFAD700D081A01EEF7A
:107636003BF020EF3BF024EF3BF048EC3CF024EF2E
:107646003BF00B4A0C2A0CBE32EF3BF00C5009E122
:10765600320E0B5CD8A032EF3BF034EF3BF00DEF6F
:107666003BF036EF3BF0000E166E030E156E838C64
:107676008186000E0E6E000E0D6E0EBE4CEF3BF0B8
:107686000E5009E1190E0D5CD8A04CEF3BF04EEF01
:107696003BF052EF3BF07BEF3BF07BEF3BF0020E13
:1076A600046E040E036EBA0EE82EFED7032EFCD728
:1076B600042EFAD700D081A063EF3BF065EF3BF0D4
:1076C60069EF3BF048EC3CF069EF3BF00D4A0E2ABF
:1076D6000EBE77EF3BF00E5009E1190E0D5CD8A0F7
:1076E60077EF3BF079EF3BF052EF3BF07BEF3BF06F
:1076F600D6EC39F0000E106E000E0F6E10BE8DEF38
:107706003BF0105009E1320E0F5CD8A08DEF3BF034
:107716008FEF3BF093EF3BF0BCEF3BF0BCEF3BF061
:10772600020E046E040E036EBA0EE82EFED7032E6A
:10773600FCD7042EFAD700D081A0A4EF3BF0A6EF29
:107746003BF0AAEF3BF048EC3CF0AAEF3BF00F4AC7
:10775600102A10BEB8EF3BF0105009E1320E0F5C54
:10776600D8A0B8EF3BF0BAEF3BF093EF3BF0BCEF9D
:107776003BF0000E166E040E156E828C838C000E86
:10778600126E000E116E12BED2EF3BF0125009E1DE
:10779600190E115CD8A0D2EF3BF0D4EF3BF0D8EF36
:1077A6003BF001EF3CF001EF3CF0020E046E040EDC
:1077B600036EBA0EE82EFED7032EFCD7042EFAD798
:1077C60000D081A0E9EF3BF0EBEF3BF0EFEF3BF0B1
:1077D60048EC3CF0EFEF3BF0114A122A12BEFDEFE7
:1077E6003BF0125009E1190E115CD8A0FDEF3BF0F9
:1077F600FFEF3BF0D8EF3BF001EF3CF0E3EC39F064
:10780600000E146E000E136E14BE13EF3CF01450EF
:1078160009E1320E135CD8A013EF3CF015EF3CF0F3
:1078260019EF3CF02AEF3AF02AEF3AF0020E046E16
:10783600040E036EBA0EE82EFED7032EFCD7042ED6
:10784600FAD700D081A02AEF3CF02CEF3CF030EFC5
:107856003CF048EC3CF030EF3CF0134A142A14BEDE
:107866003EEF3CF0145009E1320E135CD8A03EEF17
:107876003CF040EF3CF019EF3CF02AEF3AF02AEFEB
:107886003AF02AEF3AF000EF00F0F29E80B04EEFA9
:107896003CF050EF3CF035EF3DF080B255EF3CF058
:1078A60057EF3CF035EF3DF08FEF3CF08FEF3CF0BB
:1078B600ADEF3CF08186818C1A0E026E5E0E016E73
:1078C6006E0EE82EFED7012EFCD7022EFAD700D078
:1078D600ADEF3CF0838C818C1A0E026E5E0E016E4B
:1078E6006E0EE82EFED7012EFCD7022EFAD700D058
:1078F600ADEF3CF0828C818C1A0E026E5E0E016E2C
:107906006E0EE82EFED7012EFCD7022EFAD700D037
:10791600ADEF3CF0ADEF3CF015C001F016C002F043
:107926000250000AD8B49AEF3CF0ADEF3CF001509B
:10793600010AD8B4ADEF3CF0030AD8B45DEF3CF0D1
:10794600010AD8B46DEF3CF0070AD8B47DEF3CF0DD
:10795600ADEF3CF0BCEC39F0B1EF3CF080B0B6EFE7
:107966003CF0B8EF3CF0BFEF3CF080B2BDEF3CF02E
:10797600BFEF3CF0B1EF3CF080A0C4EF3CF0C6EFA7
:107986003CF0CDEF3CF080A2CBEF3CF0CDEF3CF0ED
:10799600B1EF3CF080A0D2EF3CF0D4EF3CF015EF15
:1079A6003DF080B2D9EF3CF0DBEF3CF0B1EF3CF0BC
:1079B60015EF3DF015EF3DF015EF3DF0FDEF3FF013
:1079C6008186818C1A0E026E5E0E016E6E0EE82E98
:1079D600FED7012EFCD7022EFAD700D0FDEF3FF0DE
:1079E600838C818C1A0E026E5E0E016E6E0EE82E70
:1079F600FED7012EFCD7022EFAD700D0FDEF3FF0BE
:107A0600828C818C1A0E026E5E0E016E6E0EE82E50
:107A1600FED7012EFCD7022EFAD700D0FDEF3FF09D
:107A2600FDEF3FF015C001F016C002F00250000A4B
:107A3600D8B420EF3DF0FDEF3FF00150010AD8B475
:107A4600FDEF3FF0030AD8B4E3EF3CF0010AD8B4E7
:107A5600F3EF3CF0070AD8B403EF3DF0FDEF3FF03B
:107A6600FDEF3FF080B03AEF3DF03CEF3DF021EF07
:107A76003EF080A241EF3DF043EF3DF021EF3EF0B6
:107A86007BEF3DF07BEF3DF0818C81861A0E026E16
:107A96005E0E016E6E0EE82EFED7012EFCD7022E6C
:107AA600FAD700D099EF3DF099EF3DF0838C8186AF
:107AB6001A0E026E5E0E016E6E0EE82EFED7012EB7
:107AC600FCD7022EFAD700D099EF3DF0828C818642
:107AD6001A0E026E5E0E016E6E0EE82EFED7012E97
:107AE600FCD7022EFAD700D099EF3DF099EF3DF082
:107AF60015C001F016C002F00250000AD8B486EF95
:107B06003DF099EF3DF00150010AD8B447EF3DF042
:107B1600030AD8B499EF3DF0010AD8B459EF3DF005
:107B2600070AD8B469EF3DF099EF3DF0C9EC39F09A
:107B36009DEF3DF080B0A2EF3DF0A4EF3DF0ABEF3E
:107B46003DF080A2A9EF3DF0ABEF3DF09DEF3DF09B
:107B560080A0B0EF3DF0B2EF3DF0B9EF3DF080A26E
:107B6600B7EF3DF0B9EF3DF09DEF3DF080A0BEEFE1
:107B76003DF0C0EF3DF001EF3EF080B2C5EF3DF0C5
:107B8600C7EF3DF09DEF3DF001EF3EF001EF3EF017
:107B960001EF3EF0818C81861A0E026E5E0E016E3A
:107BA6006E0EE82EFED7012EFCD7022EFAD700D095
:107BB600FDEF3FF0FDEF3FF0838C81861A0E026EDB
:107BC6005E0E016E6E0EE82EFED7012EFCD7022E3B
:107BD600FAD700D0FDEF3FF0828C81861A0E026E36
:107BE6005E0E016E6E0EE82EFED7012EFCD7022E1B
:107BF600FAD700D0FDEF3FF0FDEF3FF015C001F0E2
:107C060016C002F00250000AD8B40CEF3EF0FDEFA9
:107C16003FF00150010AD8B4CDEF3DF0030AD8B4C5
:107C2600FDEF3FF0010AD8B4DFEF3DF0070AD8B404
:107C3600EFEF3DF0FDEF3FF0FDEF3FF080A026EFC8
:107C46003EF028EF3EF00DEF3FF080B22DEF3EF014
:107C56002FEF3EF00DEF3FF067EF3EF067EF3EF09F
:107C6600818C838C1A0E026E5E0E016E6E0EE82EED
:107C7600FED7012EFCD7022EFAD700D085EF3EF0B4
:107C86008186838C1A0E026E5E0E016E6E0EE82ED3
:107C9600FED7012EFCD7022EFAD700D085EF3EF094
:107CA60085EF3EF0828C838C1A0E026E5E0E016E9C
:107CB6006E0EE82EFED7012EFCD7022EFAD700D084
:107CC60085EF3EF085EF3EF015C001F016C002F0DC
:107CD6000250000AD8B472EF3EF085EF3EF0015034
:107CE600010AD8B433EF3EF0030AD8B443EF3EF0AE
:107CF600010AD8B485EF3EF0070AD8B455EF3EF036
:107D060085EF3EF0D6EC39F089EF3EF080B08EEF8D
:107D16003EF090EF3EF097EF3EF080B295EF3EF0EA
:107D260097EF3EF089EF3EF080B09CEF3EF09EEF7D
:107D36003EF0A5EF3EF080A2A3EF3EF0A5EF3EF0A9
:107D460089EF3EF080A0AAEF3EF0ACEF3EF0EDEFFB
:107D56003EF080B2B1EF3EF0B3EF3EF089EF3EF079
:107D6600EDEF3EF0EDEF3EF0EDEF3EF0818C838CD3
:107D76001A0E026E5E0E016E6E0EE82EFED7012EF4
:107D8600FCD7022EFAD700D0FDEF3FF08186838C18
:107D96001A0E026E5E0E016E6E0EE82EFED7012ED4
:107DA600FCD7022EFAD700D0FDEF3FF0FDEF3FF0F3
:107DB600828C838C1A0E026E5E0E016E6E0EE82E9B
:107DC600FED7012EFCD7022EFAD700D0FDEF3FF0EA
:107DD600FDEF3FF015C001F016C002F00250000A98
:107DE600D8B4F8EF3EF0FDEF3FF00150010AD8B4E9
:107DF600B9EF3EF0030AD8B4C9EF3EF0010AD8B491
:107E0600FDEF3FF0070AD8B4DBEF3EF0FDEF3FF0A1
:107E1600FDEF3FF080A012EF3FF014EF3FF0FDEFD3
:107E26003FF080A219EF3FF01BEF3FF0FDEF3FF070
:107E360053EF3FF053EF3FF0818C828C1A0E026EA7
:107E46005E0E016E6E0EE82EFED7012EFCD7022EB8
:107E5600FAD700D071EF3FF08186828C1A0E026E3F
:107E66005E0E016E6E0EE82EFED7012EFCD7022E98
:107E7600FAD700D071EF3FF0838C828C1A0E026E17
:107E86005E0E016E6E0EE82EFED7012EFCD7022E78
:107E9600FAD700D071EF3FF071EF3FF071EF3FF08E
:107EA60015C001F016C002F00250000AD8B45EEF09
:107EB6003FF071EF3FF00150010AD8B41FEF3FF0D9
:107EC600030AD8B42FEF3FF0010AD8B43FEF3FF0D2
:107ED600070AD8B471EF3FF071EF3FF0E3EC39F0E9
:107EE60075EF3FF080B07AEF3FF07CEF3FF083EF25
:107EF6003FF080B281EF3FF083EF3FF075EF3FF048
:107F060080A088EF3FF08AEF3FF091EF3FF080A22C
:107F16008FEF3FF091EF3FF075EF3FF080B096EFB7
:107F26003FF098EF3FF0D9EF3FF080A29DEF3FF092
:107F36009FEF3FF075EF3FF0D9EF3FF0D9EF3FF0FD
:107F4600D9EF3FF0818C828C1A0E026E5E0E016EA6
:107F56006E0EE82EFED7012EFCD7022EFAD700D0E1
:107F6600FDEF3FF08186828C1A0E026E5E0E016E68
:107F76006E0EE82EFED7012EFCD7022EFAD700D0C1
:107F8600FDEF3FF0838C828C1A0E026E5E0E016E40
:107F96006E0EE82EFED7012EFCD7022EFAD700D0A1
:107FA600FDEF3FF0FDEF3FF0FDEF3FF015C001F0B4
:107FB60016C002F00250000AD8B4E4EF3FF0FDEF1D
:107FC6003FF00150010AD8B4A5EF3FF0030AD8B438
:107FD600B5EF3FF0010AD8B4C5EF3FF0070AD8B4B1
:107FE600FDEF3FF0FDEF3FF0FDEF3FF0FDEF3FF01F
:0A7FF600FDEF3FF0F292F29E120040
:020000040020DA
:08000000FFFFFFFFFFFFFFFF00
:020000040030CA
:0E000000FF281F3CFF3D85FF0FC00FE00F40A3
:00000001FF
